:0C0000001DC04BC051C0FCCFFBCFFACF9D
:10000C00F9CFF8CFF7CFF6CFF5CFF4CFF3CFF2CFC0
:10001C00F1CFF0CFEFCFEECFEDCFECCFEBCF3F0664
:10002C005B4F666D7C077F6F0A00E0002A000000C2
:10003C00F894EE27ECBBF1E0FBBFEBBFE5BFF8E1BA
:10004C00F1BDE1BD8DE0A2E0BB27ED938A95E9F708
:10005C0080E092E0A0E6ED930197E9F7E4E3F0E0AD
:10006C0085919591009761F0A591B59105901590AA
:10007C00BF01F00105900D920197E1F7FB01F0CF64
:10008C00EFE5EDBFE2E0EEBFC0EED0E01DC058D012
:10009C00E9E05E1608F45394A2E306C051D0E0E008
:1000AC00E51508F45A94A8ECB0E058D0E991EFBFEC
:1000BC00F991E991B991A991999189917991699164
:1000CC00F990199009901895E0E0EABBEBBBEFEFC3
:1000DC00E7BBE0E0E8BBE4BBE5BBE1BBE8E0E2BBCF
:1000EC00E0E0E3BFE2BFECBFEFBDEEBDEDBDECBDAC
:1000FC00E7BDE6BDEBBDEABDE9BDE8BDE2BDE5BDD2
:10010C00E4BDE3BDE9BFEBB7E06CEBBFE3E0E5BFFB
:10011C00E0E0E4BFE0ECEABFE0E0EAB9E0E8E8B92F
:10012C00E0E0E0BFE6B9EDB9E6BF7894E2E05E2E20
:10013C00E52DF0E0E052FF4FE081E8BBF9CFFFCFB7
:10014C000A921A92FA926A937A938A939A93AA933E
:10015C00BA93EA93FA93EFB7EA930895109639F0AD
:10016C008AEF90E00197F1F7A8951197C9F70895D8
:00000001FF
