:0200000014C02A
:10000200FECFFDCFFCCFFBCFFACFF9CFF8CFF7CFA2
:10001200F6CFF5CFF4CFF3CFF2CFF1CFF0CFEFCFD2
:10002200EECFEDCFECCFEBCFF894EE27ECBBF1E0C7
:10003200FBBFEBBFE5BFF8E1F1BDE1BD8DE0A2E0A2
:10004200BB27ED938A95E9F780E092E0A0E6ED9375
:100052000197E9F7EFE5EDBFE2E0EEBFC0EED0E0D9
:1000620000C0E0E0EABBEBBBE7BBEFEFE8BBE0E0E0
:10007200E4BBE5BBEFEFE1BB60D0E0E0E3BFE2BF92
:10008200ECBFEFBDEEBDEDBDECBDE7BDE6BDEBBD2A
:10009200EABDE9BDE8BDE2BDE5BDE4BDE3BDE9BF42
:1000A200E5BFE4BFEAB9E0E8E8B9E0E0E0BFE6B9FD
:1000B200EDB9E6BF44245524E6B3EF705E2EEEE0C0
:1000C200E51559F44424E4E14E1630F436D0A4E1A7
:1000D20037D038D04394F7CF2EC0EDE0E51559F470
:1000E2004424EEE14E1630F428D0AFE029D02AD0D5
:1000F2004394F7CF20C0EBE0E51559F44424E8E23D
:100102004E1630F41AD0AAE01BD01CD04394F7CF7D
:1001120012C0E7E0E51559F44424E2E34E1630F448
:100122000CD0A5E00DD00ED04394F7CF04C0E1E08F
:10013200E2BBA8E205D0C0CFFFCFE0E0E2BB08956A
:10014200B0E004C0E1E0E2BBA1E0FACF109639F0E2
:100152008AEF90E00197F1F7A8951197C9F70895F2
:00000001FF
