:0400000021C0FECF4E
:10000400FDCFFCCFFBCFFACFF9CFF8CFF7CFF6CFA8
:10001400F5CFF4CFF3CFF2CFF1CFF0CFEFCFEECFD8
:10002400EDCFECCFEBCF00003F065B4F666D7C0756
:100034007F6F010002002A000A00E0002C0000008B
:10004400F894EE27ECBBF1E0FBBFEBBFE5BFF8E1B2
:10005400F1BDE1BD8DE0A2E0BB27ED938A95E9F700
:1000640080E092E0A0E6ED930197E9F7E6E3F0E0A3
:1000740085919591009761F0A591B59105901590A2
:10008400BF01F00105900D920197E1F7FB01F0CF5C
:10009400EFE5EDBFE2E0EEBFC0EED0E000C0E0E08F
:1000A400EBBBEFEFEABBE0E0E8BBEFEFE7BBE0E080
:1000B400E5BBE4BBEFEFE2BBE0E0E1BBE3BFE2BFE3
:1000C400ECBFEFBDEEBDEDBDECBDE7BDE6BDEBBDE8
:1000D400EABDE9BDE8BDE2BDE5BDE4BDE3BDE5BF04
:1000E400E4BFE9BFEAB9E0E8E8B9E0E0E0BFE6B9B7
:1000F400EDB9E6BF809902C0E89401C0689421F884
:1001040020FE05C0A0E021FCA1E0A03009F008C059
:100114005394E4E6E51509F45524A8E2B0E02DD0A3
:10012400A0E020FCA1E0A03011F421FC01C003C038
:10013400A8E2B0E022D0A52DB0E0EAE0F0E047D09C
:10014400E295E07F6E2FA52DBB27EAE0F0E044D0D6
:10015400E60F4E2EE42DF0E0EF70F070E052FF4F0A
:10016400E081E8BBE42DF0E016D0E052FF4FE081DF
:10017400EBBB21FA20F8BECFFFCF109639F08AEFFF
:1001840090E00197F1F7A8951197C9F70895F195B3
:10019400E195F0400895F595E795F595E795F59582
:1001A400E795F595E79508950024112490E1AA0FA9
:1001B400BB1F001C111C0E1A1F0A18F40E0E1F1E62
:1001C40001C0A1609A9599F7FD01D001089512D05C
:1001D400EBDF0EF4DCDF0895E894B7FF04C0A095CC
:1001E400B09511966894F7FDD2DFDEDFFD010EF4C1
:1001F400CEDF0895E894F7FF02C0C9DF6894B7FF23
:1002040006C0A095B095119600F8039400FA0895DD
:00000001FF
