:0400000037C0FECF38
:10000400FDCFFCCFFBCFFACFF9CFF8CFF7CFF6CFA8
:10001400F5CFF4CFF3CFF2CFF1CFF0CFEFCFEECFD8
:10002400EDCFECCFEBCF41363A3C417F7B007F7F75
:100034000636363630363636360070777777003007
:100044003636360600363636067E7E7676004136FD
:1000540036364130363636000102040810003100CD
:10006400E0002A00050012015C000000F894EE276D
:10007400ECBBF1E0FBBFEBBFE5BFF8E1F1BDE1BDD7
:100084008DE0A2E0BB27ED938A95E9F780E092E04A
:10009400A0E6ED930197E9F7E2E6F0E0859195910A
:1000A400009761F0A591B59105901590BF01F001FD
:1000B40005900D920197E1F7FB01F0CFEFE5EDBF5D
:1000C400E2E0EEBFC0EED0E000C0E0E0EABBEBBB94
:1000D400E7BBE8BBEFEFE4BBE0E0E5BBEFEFE1BB80
:1000E400E0E0E2BBE3BFE2BFECBFEFBDEEBDEDBDC0
:1000F400ECBDE7BDE6BDEBBDEABDE9BDE8BDE2BDD3
:10010400E5BDE4BDE3BDE9BFE5BFE4BFEAB9E0E8AE
:10011400E8B9E0E0E0BFE6B9EDB9E6BF4424552410
:10012400EAE0F0E04E165F067CF566247724E8EEFC
:10013400F3E06E167F0624F588249924E5E0F0E0C8
:100144008E169F06CCF4A2E1B1E0A80DB91DEC9186
:10015400E095E5BBF201A5E0B0E022D0E052FF4F0C
:10016400E80DF91DE081E095E2BBAAE0B0E00ED015
:10017400F40131964F01E2CFF301FE963F01D7CF50
:10018400F20131962F01CCCFC9CFFFCF109639F0B1
:100194008AEF90E00197F1F7A8951197C9F70895B0
:1001A400FA9FF02DEB9FF00DEA9FE02DF10D0895DD
:00000001FF
