:040000001FC0FECF50
:10000400FDCFFCCFFBCFFACFF9CFF8CFF7CFF6CFA8
:10001400F5CFF4CFF3CFF2CFF1CFF0CFEFCFEECFD8
:10002400EDCFECCFEBCF0000000000000000020099
:1000340002002A00060004002C000000F894EE27B9
:10004400ECBBF1E0FBBFEBBFE5BFF8E1F1BDE1BD07
:100054008DE0A2E0BB27ED938A95E9F780E092E07A
:10006400A0E6ED930197E9F7E2E3F0E0859195913D
:10007400009761F0A591B59105901590BF01F0012D
:1000840005900D920197E1F7FB01F0CFEFE5EDBF8D
:10009400E2E0EEBFC0EED0E000C0E0E0EABBEBBBC4
:1000A400E7BBEFEFE8BBE0E0E4BBE5BBEFEFE1BBB0
:1000B400E0E0E2BBE3BFE2BFECBFEFBDEEBDEDBDF0
:1000C400ECBDE7BDE6BDEBBDEABDE9BDE8BDE2BD03
:1000D400E5BDE4BDE3BDE9BFE5BFE4BFEAB9E0E8DF
:1000E400E8B9E0E0E0BFE6B9EDB9E6BF442009F0C5
:1000F40091C0B09902C0E89401C0689420F8A0E0CF
:1001040020FCA1E0A03011F427FC01C003C003D1FE
:10011400A1E006D120FE05C0A0E027FCA1E0A030AC
:1001240009F001C002D120FA27F8B19902C0E8947D
:1001340001C0689421F8A0E021FCA1E0A03011F4F2
:1001440030FC01C003C0E7D0A2E0EAD021FE05C024
:10015400A0E030FCA1E0A03009F001C0E6D021FA13
:1001640030F8B29902C0E89401C0689422F8A0E083
:1001740022FCA1E0A03011F431FC01C003C0CBD0BB
:10018400A3E0CED022FE05C0A0E031FCA1E0A03067
:1001940009F001C0CAD022FA31F8B39902C0E89438
:1001A40001C0689423F8A0E023FCA1E0A03011F47E
:1001B40032FC01C003C0AFD0A4E0B2D023FE05C01E
:1001C400A0E032FCA1E0A03009F001C0AED023FAD7
:1001D40032F8EAE0E51509F45524B49902C0E8942C
:1001E40001C0689424F833FE05C0A0E024FCA1E01B
:1001F400A03009F003C0E1E04E2E97D0A0E033FC1C
:10020400A1E0A03011F424FC01C001C08ED024FA76
:1002140033F850C08DD0A13041F4909A919A9298BD
:1002240093989394A4EFB1E01EC082D0A23029F435
:1002340090989198929A939A13C07AD0A33029F403
:10024400909A91989298939A0BC072D0A43021F40A
:100254009098919A929A03C09098919892989398B2
:100264009394A8EEB3E06AD0EAE0E91511F4992476
:100274004424B59902C0E89401C0689425F8A0E02C
:1002840025FCA1E0A03011F434FC01C003C0E1E07E
:100294006E2E4BD025FE05C0A0E034FCA1E0A030BA
:1002A40009F001C042D025FA34F8E1E0E61511F472
:1002B40044246624B69902C0E89401C0689426F8E0
:1002C400A0E026FCA1E0A03011F435FC01C003C07D
:1002D400E1E07E2E2AD026FE05C0A0E035FCA1E098
:1002E400A03009F001C021D026FA35F8E1E0E71585
:1002F40081F48824EAE08E1640F4E82DF0E0E05220
:10030400FF4FA0E0A0838394F5CF5524992477244C
:100314004424ECCEFFCFE52DF0E0E052FF4F0895EA
:10032400A0835394A8E2B0E009C0A8E2B0E006C0FC
:10033400E92DF0E0E052FF4FA0810895109639F0C6
:100344008AEF90E00197F1F7A8951197C9F70895FE
:00000001FF
