:1000000032C0FECFFDCFFCCFFBCFFACFF9CFF8CF78
:10001000F7CFF6CFF5CFF4CFF3CFF2CFF1CFF0CFCC
:10002000EFCFEECFEDCFECCFEBCF0000000019000B
:100030000A001300610030004553434F4D0080C05B
:10004000010002002A0004000A002C000100E40064
:1000500030000100E60032000100E8003400020038
:10006000EA003E000000F894EE27ECBBF1E0FBBF95
:10007000EBBFE5BFF8E1F1BDE1BD8DE0A2E0BB273C
:10008000ED938A95E9F780E092E0A0E6ED93019781
:10009000E9F7E0E4F0E085919591009761F0A59192
:1000A000B59105901590BF01F00105900D92019753
:1000B000E1F7FB01F0CFEFE5EDBFE2E0EEBFC0EE10
:1000C000D0E00DC0AA93E881E066E7B983E08A95A5
:1000D000F1F7369A349BFECF349AE5B1C1C1E0E026
:1000E000EABBEBBBEFEFE7BBE0E0E8BBE4BBE5BBA3
:1000F000E1BBEFEFE2BBE0E0E3BFE2BFECBFEFBD8F
:10010000EEBDEDBDECBDE7BDE6BDEBBDEABDE9BDB5
:10011000E8BDE2BDE5BDE4BDE3BDE9BFE5BFE4BFC9
:10012000EAB9E0E8E8B9E0E6E7B9E1E8E6B9E0E134
:10013000E0BFE0E0EDB9E6BFA0E16AD1809902C07E
:10014000E89401C0689421F820FE05C0A0E021FCDD
:10015000A1E0A03009F009C0E091E500E03011F421
:10016000E1E001C0E0E0E093E50021FA20F8EBE0F7
:1001700079D1A8E3B0E039D1A0E0A4DF8E2EE82D3C
:10018000F0E0F2D249D2AAE9B9E989EB9FE372D251
:100190006CD174D17CD1BCD209F008F402C077D103
:1001A00064D16CD1E0E0F0E060E271E463D2FDD1B3
:1001B0002F01D201E4E6F0E0EFD26E2ED201E4E6A8
:1001C000F0E0F2D22F01D20167D1EED29E2ED20101
:1001D00066D17E2EEAE066D1A62DA05DE6D0EBE0EA
:1001E00061D1A72DA05DE1D0ECE05CD1AEE2DDD025
:1001F000EDE058D1A92DA05DD8D0EEE053D1AFED00
:10020000D4D0EFE04FD1A3E4D0D0A091E500A1304D
:1002100069F4819902C0D39448D1829902C0A39411
:1002200044D1839902C0B39440D10FC0819905C0D5
:100230003FD146D108F04CD138D1829902C055D176
:1002400034D1839902C0C39430D12FD1B394EBE35E
:10025000EB1510F4A394BB24EBE3EA1518F4D39444
:10026000AA24BB24E7E1ED1520F4C394DD24BB24CC
:10027000AA24EFE1EC1510F438D1CC24A091E400CD
:10028000AD3038F015D1E0E0E093E40019D108F08A
:100290001FD1E0E007D1AD2D2ED12FD1E1E002D169
:1002A000AD2D2ED1E2E0FED0AAE37FD0E3E0FAD07C
:1002B000AA2D21D122D1E4E0F5D0AA2D21D1E5E06B
:1002C000F1D0AAE372D0E6E0EDD0AB2D14D115D178
:1002D000E7E0E8D0AB2D14D1E0E0C4D015D149D28D
:1002E0000CD1E1E0BFD010D15CD207D1E2E0BAD0AE
:1002F00010D13FD202D1E3E0B5D00BD152D2FDD024
:10030000E4E0B0D0ADE251D0E5E0ACD0A091E400A3
:10031000F2D0F3D0E6E0A6D0A091E400F1D0E7E07F
:10032000A1D0ADE242D0E8E09DD0AC2DE4D0E5D044
:10033000E9E098D0AC2DE4D001CFFFCFAA93EBB386
:10034000EF70AE2FE881E07FEA2BEBBBE7D0DA9AC3
:10035000E5D0DA98E3D084C0AA93A881EFDFE881E2
:10036000E295E883A881EADF81E18A95F1F778C018
:10037000AA93E881F0E0E651FF4FE081A981AE0F3A
:10038000EBDFE981E093EE00E881E093EF00229655
:100390000895A2E0C7D0ACE0DFDFA1E0C3D0E0E089
:1003A000E093EF00E093EE000895AA93A881AA30AD
:1003B00031F0E091F000A091EE00AE1760F0E0E0C7
:1003C000EA93A091EF00AF5FA093EF00D1DFA88187
:1003D000AA3009F445C0E091EE00EF5FE093EE0033
:1003E000D89AA881B9DFD8983BC0BA93AA931A9338
:1003F000E981FA813196E983FA833197E4911E2FDE
:10040000E03019F0A12FD1DFF3CF188123960895A2
:10041000AA93EAB3E06FEABBD29AD09AD19ADA985B
:10042000D898D998E881E093F000E058E093EC0088
:10043000E881E054E093ED00A4E1B0E07DD076D017
:1004400075D074D0A0E27ADF81E28A95F1F7A8E254
:1004500083DFA4E081DFA5E87FDFA6E07DDF99DF11
:1004600021960895EA93A0E083CFE093E000F09313
:10047000E1006093E2007093E3000895A091E00032
:10048000B091E1008091E2009091E3000895E0E0F6
:10049000F0E066EC72E40895EAE0F0E00895FCDF35
:1004A0007BD10895EA93A1E063CFACE2B1E044C010
:1004B000A8EEB0E0ED91FD913196FE93EE93089594
:1004C000A091E800B091E900A436E0E0BE070895ED
:1004D000A6EEB0E0ED91FD913196FE93EE93E0E053
:1004E000E093E800E093E9000895E091E400EF5F15
:1004F000E093E4000895B0E0D2CFE05DAE2F55CF99
:10050000BB27CADF51D1F9CFA091E600B091E70037
:10051000C3CFA091E800B091E900BECF82E08A95F8
:10052000F1F7089519DFA3E0B0E006C0A0E306DF0D
:1005300081E28A95F1F70895109639F08AEF90E0FC
:100540000197F1F7A8951197C9F70895552342F43B
:10055000503811F4E0FF04C03196691F791F6BF029
:1005600050E8572711F45F9373C05F3F31F0660F77
:10057000000C57956795752F08955F9300200AF03A
:1005800073C06CC050E8192E1522880F991F95274B
:10059000550F879550E8072E0522660F771F7527A0
:1005A000550F67950895689401C0E8945F93F2DF52
:1005B000703818F07F3F08F44BC056E1571BAAF47F
:1005C000519558300EF4593030F0EFEFFFEF6FEFE8
:1005D0007FE777F91AC077275523B9F0EE0FFF1F91
:1005E000661F771F5A95D1F710C07727583028F02B
:1005F000EF2FF62F672F5850F9CF552331F076950E
:100600006795F795E7955A95D1F700200AF4A4D09D
:100610005F910895689401C0E894309760407040FD
:10062000B1F0002426F0772312F4009495D0172E11
:100630007EE1112032F07A95EE0FFF1F661F111C2C
:10064000F9CFEF2FF62F612D5F938ADF5F91089529
:10065000EE27FF27662777275F910895EFEFFFEFDB
:100660006FE77FEF5F910895EFEFFFEF6FE77FE7B1
:100670005F9108955F9386DF703851F3903841F3AE
:1006800001240894791F23F41CF300203AF3ECCFE3
:100690000F921F932F933F934F9311272227992750
:1006A000689FA0018F9F302D410D591F6B9F300D0A
:1006B000411D591F8E9F27D0BF9F25D06A9F23D0F1
:1006C000BE9F1DD0AF9F1BD0AE9F110D291F391F9C
:1006D000491F591FE32FF42F652F522F4F913F9140
:1006E0002F911F910F9066232AF0550FEE1FFF1FC9
:1006F000661F02C073954BF229DF5F910895100DBC
:10070000211D391F02C0200D311D491F591F089599
:1007100099239AF0772342F0971748F029F4AE17FF
:10072000BF07860720F031F0989488940895989434
:10073000089408951894889408957723C2F797171A
:1007400098F3A9F7EA17FB07680788F399F3ECCF4A
:10075000F195E195F0400895F09560957095E195DB
:10076000FF4F6F4F7F4F08956F2F660F660B762FE9
:1007700008950024112490E1AA0FBB1F001C111C36
:100780000E1A1F0A18F40E0E1F1E01C0A1609A95C2
:1007900099F7FD01D001089515D0EBDF0EF4D8DFF5
:1007A0000895E7DFFD010895E894B7FF04C0A09520
:1007B000B09511966894F7FDCBDFDBDFFD010EF4F9
:1007C000C7DF0895E894F7FF02C0C2DF6894B7FF5F
:1007D00006C0A095B095119600F8039400FA08950C
:00000001FF
