:0800000025C0FECFFDCFFCCFAF
:10000800FBCFFACFF9CFF8CFF7CFF6CFF5CFF4CFB4
:10001800F3CFF2CFF1CFF0CFEFCFEECFEDCFECCFE4
:10002800EBCF000000000000000000003F065B4F1F
:10003800666D7C077F6F0A0004002A000A00E00052
:1000480034000000F894EE27ECBBF1E0FBBFEBBFF7
:10005800E5BFF8E1F1BDE1BD8DE0A2E0BB27ED937E
:100068008A95E9F780E092E0A0E6ED930197E9F739
:10007800EEE3F0E085919591009761F0A591B59137
:1000880005901590BF01F00105900D920197E1F7D9
:10009800FB01F0CFEFE5EDBFE2E0EEBFC0EED0E050
:1000A8000EC0AA93E881E066E7B983E08A95F1F784
:1000B800369A349BFECF349AE5B121960895E0E054
:1000C800EBBBEABBE8BBEFEFE7BBE0E0E5BBEFEF7C
:1000D800E4BBE2BBE0E0E1BBE3BFE2BFECBFEFBDE6
:1000E800EEBDEDBDECBDE7BDE6BDEBBDEABDE9BDCE
:1000F800E8BDE2BDE5BDE4BDE3BDE5BFE4BFE9BFE2
:10010800EAB9E0E8E8B9E0E0E0BFE0E6E7B9E4E84A
:10011800E6B9E0E0EDB9E6BFA0E0C3DFF0E0A4EFA8
:10012800B1E0BDD1DF01EFEFF0E0D1D12F0180992F
:100138002CC0F201A7D1C9D0A6E6B6E686EE9FE3A9
:1001480047D1A0E0B0E080E092E4F2D0AAEEB0E0BF
:1001580085D0ED93FC9325D0BAD13F0122D0BCD1F4
:10016800DF0126D0B4D14F01A091EA00B091EB0095
:1001780022D0A998AA9A24D0A60DB71D24D0A89851
:1001880027D02CD0EC91E8BB0AC06201D60110D070
:100198009ED14F01D6010FD01BD020D014D0BCCF98
:1001A800FFCFA091EA00B091EB00E4E6F0E00895FB
:1001B800EAE0F0E00895FCDF8FD15F01A898089588
:1001C800A0EEB0E00895EC91E8BBA5E0B0E00DC06A
:1001D800A99AAA98F5DFA80DB91DF5CFA89AA998EC
:1001E800AA98EEDFAA0DBB1D0895109639F08AEF84
:1001F80090E00197F1F7A8951197C9F7089555234D
:1002080042F4503811F4E0FF04C03196691F791F99
:100218006BF050E8572711F45F93C8C05F3F31F087
:10022800660F000C57956795752F08955F9300200A
:100238000AF0C8C0C1C050E8192E1522880F991FAE
:100248009527550F879550E8072E0522660F771FCB
:100258007527550F67950895689401C0E8945F93D2
:10026800F2DF703818F07F3F08F4A0C056E1571B42
:10027800AAF4519558300EF4593030F0EFEFFFEFF3
:100288006FEF7FE777F91AC077275523B9F0EE0F9C
:10029800FF1F661F771F5A95D1F710C07727583070
:1002A80028F0EF2FF62F672F5850F9CF552331F04C
:1002B80076956795F795E7955A95D1F700200AF452
:1002C800D9D05F910895689401C0E8943097604050
:1002D8007040B1F0002426F0772312F40094CAD0BD
:1002E800172E7EE1112032F07A95EE0FFF1F661F60
:1002F800111CF9CFEF2FF62F612D5F938ADF5F91E5
:1003080008954F93AF01FD01DA01AB01BC01CA01A9
:10031800402D012C142E4F910895EA0FFB1F681FE2
:100328000895E095F0956095EF5FFF4F6F4F089542
:100338005F9381DF903839F1703821F1572F591BBD
:100348002BF112F4DEDFFACF583118F0AA27BB27B9
:100358008827583028F0AB2FB82F88275850F9CF66
:10036800552329F08695B795A7955A95D9F7502D15
:10037800512572F0D2DF38F46795F795E7957395B4
:1003880013F420C0BEDF45DF5F910895D8F7FBCF97
:10039800EA1BFB0B680B51F010F40094C2DF6623D4
:1003A80092F3EE0FFF1F661F7A95CBF7EE27FF2714
:1003B800662777275F910895EFEFFFEF6FE77FEFED
:1003C8005F910895EFEFFFEF6FE77FE75F91089583
:1003D8005F9331DF703851F3903841F3012408946A
:1003E800791F23F41CF300203AF3ECCF0F921F93EC
:1003F8002F933F934F93112722279927689FA00196
:100408008F9F302D410D591F6B9F300D411D591F76
:100418008E9F27D0BF9F25D06A9F23D0BE9F1DD017
:10042800AF9F1BD0AE9F110D291F391F491F591FA0
:10043800E32FF42F652F522F4F913F912F911F914A
:100448000F9066232AF0550FEE1FFF1F661F02C08C
:1004580073954BF2D4DE5F910895100D211D391F5D
:1004680002C0200D311D491F591F0895F195E195CE
:10047800F0400895F09560957095E195FF4F6F4FA6
:100488007F4F08956F2F660F660B762F0895FA9F9A
:10049800F02DEB9FF00DEA9FE02DF10D08952AD085
:1004A800F6DF0EF4E3DF08950024112490E1AA0F8B
:1004B800BB1F001C111C0E1A1F0A18F40E0E1F1E5B
:1004C80001C0A1609A9599F7FD01D001089512D055
:1004D800EBDF0EF4CBDF0895E894B7FF04C0A095D6
:1004E800B09511966894F7FDC1DFDEDFFD010EF4CB
:1004F800BDDF0895E894F7FF02C0B8DF6894B7FF3E
:1005080006C0A095B095119600F8039400FA0895D6
:00000001FF
