:0E00000014C0FECFFDCFFCCFFBCFFACFF9CF5F
:10000E00F8CFF7CFF6CFF5CFF4CFF3CFF2CFF1CFC6
:10001E00F0CFEFCFEECFEDCFECCFEBCFF894EE27C6
:10002E00ECBBF1E0FBBFEBBFE5BFF8E1F1BDE1BD1D
:10003E008DE0A2E0BB27ED938A95E9F780E092E090
:10004E00A0E6ED930197E9F7EFE5EDBFE2E0EEBF35
:10005E00C0EED0E000C0EFEFEABBE0E0EBBBE7BBE9
:10006E00E8BBEFEFE4BBE5BBE0E0E1BBE2BBE3BF27
:10007E00E2BFECBFEFBDEEBDEDBDECBDE7BDE6BD35
:10008E00EBBDEABDE9BDE8BDE2BDE5BDE4BDE3BD46
:10009E00E9BFE5BFE4BFEAB9E0E8E8B9E0E0E0BFF8
:1000AE00E6B9EDB9E6BFEBB3EF5FEBBBE5B3E150FD
:1000BE00E5BBAAEFB0E002D0F6CFFFCF109639F035
:1000CE008AEF90E00197F1F7A8951197C9F7089577
:00000001FF
